:020000040000fa
:080000000002040000000000f2
:020000040000fa
:1000080086060000860600008606000086060000b8
:1000180086060000860600008606000086060000a8
:1000280086060000d2020000860600005c0400007c
:100038008606000078030000860600008606000099
:10004800640400008606000086060000860600009c
:100058008606000086060000860600008606000068
:10006800e8050000860600008606000086060000f7
:100078008606000086060000860600008606000048
:100088008606000086060000860600008606000038
:100098008606000086060000860600008606000028
:1000a8008606000086060000860600008606000018
:1000b80086060000ea0300008606000086060000a7
:1000c80086060000860600008606000086060000f8
:1000d80086060000860600008606000086060000e8
:1000e80086060000860600008606000086060000d8
:1000f80086060000860600008606000086060000c8
:1001080086060000860600008606000086060000b7
:1001180086060000860600008606000086060000a7
:100128008606000086060000860600008606000097
:100138008606000086060000860600008606000087
:100148008606000086060000860600008606000077
:100158008606000086060000860600008606000067
:100168008606000086060000860600008606000057
:100178008606000086060000860600008606000047
:100188008606000086060000860600008606000037
:100198008606000086060000860600008606000027
:1001a8008606000086060000860600008606000017
:1001b8008606000086060000860600008606000007
:1001c80086060000860600008606000086060000f7
:1001d80086060000860600008606000086060000e7
:1001e80086060000860600008606000086060000d7
:1001f80086060000860600008606000086060000c7
:1002080086060000860600008606000086060000b6
:1002180086060000860600008606000086060000a6
:100228008606000086060000860600008606000096
:100238008606000086060000860600008606000086
:100248008606000086060000860600008606000076
:100258008606000086060000860600008606000066
:100268008606000086060000860600008606000056
:0c027800860600008606000086060000d6
:020000040000fa
:100400002f1621000eff21000e01880000000000c1
:10041000000020000000e000020032000001200087
:10042000200288000c00070040c7200001002000c7
:100430000f000700000020000000e0000200320072
:100440000000020000000000c00a020000000000de
:100450000040da000000fe00200020000000e00064
:100460000200320010002000900188000000060009
:10047000a1028800800078000000eb001a0037001d
:10048000e280400054a0b4009101ba00e280400034
:1004900054a0b4009102ba00e280400054a0b4001d
:1004a0000002eb00472bde00f507b200a601880032
:1004b000602ce10008003a000049eb000201e8006e
:1004c000020039003420ec0002f0a0008301e900b2
:1004d000f9ff3e00040037006128e100010032000e
:1004e0000082eb00040007001101ba000200e000e6
:1004f000e3ff3a000000060004d0a300e20f490029
:100500001c003900810278003549ba000201e80078
:10051000020039003420ec0002f0a0008301e90061
:100520000f0032002549ba000201e800020039003c
:100530003420ec0002f0a0008301e9000800320042
:100540000400e0000600320015c9ba000201e8000c
:10055000020039003420ec0002f0a0008301e90021
:100560008180e80054a0b4000300e000e2ff3a00fc
:10057000000006009102ba00055978008301e900e5
:10058000f7ff3200c82ade00055978008301e90030
:10059000f3ff32000400e000f1ff320011d9ba008d
:1005a000eeff37003600f800809fbe00829fbe003d
:1005b000849fbe00869fbe000000fa000028a900ac
:1005c000748a80000402e800748a880094708000b5
:1005d00004427800614262000482fb004222dd0096
:1005e00084027800947080000402d10061426200ad
:1005f0000482fb0004024200848242009470800066
:100600004722de00614262000482fb000482420055
:10061000248a8800e489800062026200e00f5200b0
:1006200007003200248a800084024200c4112100a5
:100630000482420014027800040078004c04070091
:10064000e489800062026200e00f520007003a0075
:10065000248a800084024200c412210004824200e5
:10066000140278000400780041040700248a800006
:100670006123b8000082eb008082eb00060242009a
:1006800087824a005600200007002000860f520093
:10069000878f5a000f003e00040601000500370056
:1006a000060037000b0037000a003700050037004e
:1006b000060037003c51a900060037003c51a80055
:1006c000040037003c51a800020037003c51a9004b
:1006d000000000000080fa004f03be004f02be0081
:1006e0004f01be004f00be003600f900004006007a
:1006f0003600f800809fbe00829fbe00849fbe002f
:10070000869fbe000000fa0000a8a9009470800037
:1007100004427800614262000482fb004222dd0054
:1007200084027800947080000402d100614262006b
:100730000482fb0004024200848242009470800024
:100740004722de00614262000482fb000482420014
:10075000248a8800748a80000402e800748a880071
:10076000e489800062026200e00f5200070032005c
:10077000248a800084024200c411210004824200c5
:100780001402780004007800f9030700e48980006f
:1007900062026200e00f520007003a00248a8000e3
:1007a00084024200c4122100048242001402780034
:1007b00004007800ee0307000080fa004f03be003b
:1007c0004f02be004f01be004f00be003600f900d0
:1007d000004006003600f800809fbe00829fbe00e9
:1007e000849fbe00869fbe000000fa0004a8a900f6
:1007f0009470800004427800614262000482fb0031
:100800004222dd0084027800947080000402d1004e
:10081000614262000482fb000402420084824200c2
:10082000947080004722de00614262000482fb0077
:1008300004824200248a8800748a80000402e8004e
:10084000748a8800e489800062026200e00f52002e
:1008500007003200248a800084024200c411210073
:10086000048242001402780004007800c0030700ec
:10087000e489800062026200e00f520007003a0043
:10088000248a800084024200c412210004824200b3
:100890001402780004007800b50307000080fa0015
:1008a0004f03be004f02be004f01be004f00be000e
:1008b0003600f900004006000000fa000068a900b8
:1008c0000080fa00004006003600f800809fbe005d
:1008d000829fbe00849fbe00869fbe00889fbe0090
:1008e0000a00fa00758a8000d407200084aab900a3
:1008f000348a8800348a80000402d100448a880047
:100900000002eb00748a8800e489800064026200bf
:10091000e00f520003003a00448a80000402ea001b
:10092000048a8800e489800064026200e00f5200bb
:1009300002003200448a8000048a8800048a800011
:1009400048a2de00044278000443780045022100fa
:10095000864a7800048a80000442780004437800c4
:1009600055022100864a7800a40121001442780033
:100970000482fb00c822dd00b4012100144278008b
:100980000482fb0004824200f4898800048a80000b
:10099000cfa2de000400be00610107000002be001d
:1009a0000275270063dd23000400be00b2010700ca
:1009b0000002be001407980025079800f489800003
:1009c000cfa2de000400be00550107000002be00f9
:1009d0000275270063dd23000400be00a6010700a6
:1009e0000002be0034079800450798001e019000e1
:1009f000ae0190003e009000ce009000c5000700c0
:100a00000002be0094888800a58888009488800031
:100a1000a5888000d2b82400d3cb23000400be00f8
:100a2000950107000002be000403be007488800028
:100a3000858880000401be000600be00b6000700e5
:100a40000002be000404be00b4888000c588800097
:100a5000f21e2d0083cb23000400be008601070098
:100a60000002be000401be000800be00a90007008d
:100a70000002be0054888800658888005488800081
:100a80006588800018c0b3006011b8000400be0083
:100a90000001070000027800e00f520001003c0056
:100aa0000044eb00e04f5400010032003c31a8004c
:100ab000548880006588800018c0b3006011b800b9
:100ac0000400be00f100070000027800e00f5200b1
:100ad000010035000044eb00e04f540001003200fb
:100ae0003c31a90054888000658880000200200005
:100af000a32724000400be005f0107000002be001f
:100b00000400be00e50007000002be0004027800f9
:100b100004f0a7000402ea00040f7800e42e20008d
:100b20009e027800848f520002003400e42e2000e0
:100b3000040f7800e42e20001e025200546088004a
:100b400094888000a5888000b4888800c5888800c3
:100b500054888000658880007488880085888800b3
:100b6000940f20009e027800848f52000f00340002
:100b7000048a8000e00f52000c003a0010002000b0
:100b8000fb02070020032000e102070020002000f4
:100b9000f702070020032000dd02070030002000dc
:100ba000f302070020032000d90207000108a90072
:100bb0000080fa004f04be004f03be004f02be008b
:100bc0004f01be004f00be003600f9000040060095
:100bd000849fbe000200fa0044108000640262009c
:100be000e00f520009003a00451080000402200086
:100bf00004826200e00f520004003a0004108000fa
:100c0000044f78000811a8003c0037004410800011
:100c100064026200e00f52001f003a00451080009d
:100c20000402200004826200e00f52001a00320029
:100c3000841021001442780061426200e04f5200ab
:100c4000070032000811a9000831a800358880008b
:100c50000410800004824200348888002700370096
:100c6000841021001442780062426200e04f52007a
:100c70002100320034888000051080008542780011
:100c8000054a78000811a9000831a9006400210074
:100c90003488880019003700441080006402620024
:100ca000e00f5200150032004510800004022000c1
:100cb00004826200e00f520010003a00041080002d
:100cc000044f780034888000144278000482fb00ce
:100cd000141088000782a800000000004410800063
:100ce00061026200e00f5200fcff3a006400210044
:100cf0003488880001003700000000000208a900c5
:100d00000080fa004f02be00004006000040da00fa
:100d10000000fe0003f0a200889fbe008a9fbe0074
:100d20008c1f7800bc000700c30033006450e10052
:100d30004f0032006420e1005200320003826c0058
:100d400007003b000905d0000306d000820f5400c5
:100d50000c065d00020039000200320089017800b3
:100d6000030678008582550004003d000003fd0065
:100d70008103fd008502ea008b854200840f72002a
:100d800002003b0060001000e08018006011b80015
:100d90000005eb007a28e1000a003900060078001f
:100da000c75ddd00f707b200878075002d003700b2
:100db000828171000a017800610560008180d100a4
:100dc0000080d3008502e900f9ff3b0006044000e3
:100dd0008784480002003b0060041400e0841c008b
:100de0000988a300070032008a81710082817100a6
:100df000610164008904d1000884d3008b05e800f8
:100e0000170037000978a30013003a000b00e00038
:100e1000130034008b05e9000804440089844c0069
:100e20000a4474000978a3000d003a000b00e000aa
:100e3000070034008b05e9000804440089844c0055
:100e400001003a000b0020000978a300f7ff3200f0
:100e50000001eb0002003700828171000a01780076
:100e6000320007000cf0a70001f0a0007b00370063
:100e70006420e10002003a00838f6c007b003300a5
:100e80000801be000200be007400370014002000fc
:100e9000ad003700f4ff2f00ab0037000001be00ab
:100ea000480007000470a70003f0a1006509b10025
:100eb000160032000d0035006828e10006003500fc
:100ec000f0ff2f00f1ff27000300e00013003b00bc
:100ed000010028000000050000004000818048005b
:100ee0008502e900fcff3a0008003700f88f420055
:100ef00002003c008000eb00000005008100d100f2
:100f00000080d3008502e800fcff3a000300e00007
:100f100002003b0060001000e080180000000600a6
:100f20004f89de0082017800a20037008100200096
:100f3000618055000b003d000b00200061fe2f007a
:100f40000100e1001d003400828171006101640034
:100f50008904d1000884d3000000e800faff3a00b9
:100f60007100200061006400030070000200600056
:100f70000900320061044400e0844c000988a500a7
:100f8000050032008b05e8006808e10002003a0025
:100f90008904d1000884d300f20f20000258e10038
:100fa00005003d00c75ddd00f907b20089807500ce
:100fb00008007800000006000bf827008b0078007e
:100fc00000000500c70ade00f107b200f50fb2000d
:100fd00008003200e1cf4200020032000170a000a0
:100fe00024000500810f7000010032000408050094
:100ff00044000500810f700002003a001400050053
:101000008502e9000000400081c04800fcff3b0071
:101010000170a000240005000004be00e9ff0700e5
:101020000003be000405be000200be00e5ff07008d
:10103000844f7500000006000200be006450e1000d
:10104000050036006420e100020036000968a300b4
:1010500001003a000800be000160a0004f067800c1
:101060004f05be004f04be0000000600f0ff2f0039
:10107000f1ff2700f9ff3700889fbe008a9fbe005e
:101080008c1f7800e4ff0700ebff330003866c0041
:101090006450e100240032006420e10027003200a7
:1010a0006150e100220032006120e10021003200a5
:1010b0008b854200eb07b1000134b800003ab8005c
:1010c0000804420089844a00013ab8000030b800a0
:1010d0008880400009014a000400330000004000fd
:1010e00081804800020149008b05e900c909dd0043
:1010f000830170000100320013002000c814de00dc
:101100004814dd004709de001200b200c808de0006
:101110000884700085ff070001f0a1000cf0a70013
:1011200001f0a000cdff37006120e100cfff3200c9
:101130000801be000200be00f7ff37006150e10069
:10114000fcff3a00c9ff3700889fbe008a9fbe009f
:10115000841f7800b0ff07004f00780011003300b3
:10116000f0ff2f00838f6c0006003b000405650034
:101170000a00a7000800370009f0a60010002000b0
:1011800008003700820f5400838f5c000300390091
:101190001000200001003e000000200009f0a70020
:1011a0000000ea004f05be004f04be000000e00052
:1011b00000000600881f7800030478000300e000a8
:1011c00007003d0060001000e08018006001190079
:1011d000e081190002003b0001f02d000300370000
:1011e0000400070008f0a70001f0a0004f047800f9
:1011f00000000600889fbe008a9fbe00008270002b
:101200000402710004827100260032000004be0056
:101210000200be006011b8006b092000950220009a
:101220000182cf000a0039000541b1000082cf00e1
:10123000070039000541b1000982cf0004003900e0
:101240000541b1000882cf00010039000541b1001d
:1012500005425200120032000a003b0082817100f8
:10126000610164008100d1000080d3008984d30033
:101270000884d3008b05e8000442e800f7ff3a0039
:10128000070037000804440089844c00000048002f
:10129000818048008b05e9000442e900f9ff3a002b
:1012a00022ff07004f05be004f04be0000000600ed
:020000040000fa
:1012b0000000fa000002eb00f4708800f470800077
:1012c000747088000e0ea800000ea80044002000d4
:1012d000041988000002eb0014198800f4002000b3
:1012e000241988000002eb00941988000002eb002a
:1012f000441988000002eb00341988000002eb005a
:10130000741988000002eb008419880021e3a8000a
:101310000080fa00000006000000fa00146080005f
:101320000400a1000410a0000420a10014608800a3
:10133000e42e2000246088001461800004a0a00036
:1013400004b0a100146188001462800004a0a00011
:1013500004b0a100146288001463800004a0a000ff
:1013600004b0a100146388000002eb0054638800fd
:101370005463800054628800546280005461880085
:101380000002eb006463880064638000646288008c
:10139000646280006461880023eca80023cca9006b
:1013a00043eca80043cca90063eca80063cca900df
:1013b00023aca80043aca80063aca800210ca80093
:1013c000410ca800610ca80044062000546088006d
:1013d00001eca8000080fa00000006000000fa00fe
:1013e000100ea800102ea80010eea8001400200077
:1013f000040a88000002eb00140a88001400200090
:10140000440a88000002eb00540a880014002000ff
:10141000840a88000002eb00940a880004428000dd
:101420000440a1000450a0000460a0000442880011
:10143000144280000440a1000450a0000460a000f9
:1014400014428800944280000440a1000450a0008f
:101450000460a000944288000028a90000a8a90008
:1014600004a8a9002028a80020a8a80024a8a80053
:101470000080fa00000006000000fa0004032000cb
:10148000940888000002eb0054088800f449220008
:101490007408880013e1a800244280000400a10021
:1014a0000410a1000420a000244288000108a90023
:1014b0002108a8000080fa00000006000000fa00e1
:1014c00004032800240888000002eb0004088800b8
:1014d00054c320001408880005e1a80004428000dd
:1014e00004c0a10004d0a10004e0a00004428800d0
:1014f0000068a9002068a8000080fa00000006002b
:101500000000fa00002ea9000080fa00000006008a
:101510000000fa0011eea90011aea900116ea90099
:10152000008ea90010aea9000080fa00000006009d
:101530000000fa0004002800341088000404200091
:10154000541088000002eb00641088006400210041
:10155000348888000811a9000831a900444280009d
:101560000400a0000410a1000420a0004442880050
:101570000208a9002208a8000080fa000000060066
:101580000200fa00e4022000343a8800243a800085
:101590000460a1000470a100243a8800253a80006c
:1015a00004fe2f0004826200243a880036002000e6
:1015b00084072000a509200037742000844b7800a0
:1015c000854b7800864b7800143a8000040378003d
:1015d0000600a00064042000750520002774200088
:1015e000844b7800854b7800864b78000000000023
:1015f000153a800004002700848262000400230062
:10160000848f5200faff3a0000000000153a800073
:101610000402200004826200e00f5200fbff32004f
:101620000002eb00847088000002eb000470880068
:10163000c3e8a8007535800004f82f00848262009a
:1016400004022000050272007435880075358000a0
:10165000f40f280084826200041022000502720048
:10166000743588008535800004f82f00848262007c
:10167000740220000502720084358800042ea9003f
:101680000002eb00040f7800030037000071220015
:101690001f0007001e0fe8001e027800e50f520031
:1016a000faff360002ff070073ff07000002eb009d
:1016b000448a880018ff07003c11a80047ff070074
:1016c0008fff070092ff07000002eb00040f780075
:1016d000060037001e027800844278006400210072
:1016e0001e024200054a78001e0fe800f40f200099
:1016f0009e027800848f5200f6ff36008cff0700b0
:10170000048ea80014aea800042ea800ffff370026
:101710000400fa0010079800080037000002eb00f0
:10172000040f7800010037001e0fe800743e20000f
:101730009e027800848f5200fbff36001e0290004c
:1017400004f0a7000402ea000402ea004f22de00cf
:10175000044278009e0290008502e9001507980077
:10176000e04f5200edff3a000080fa000000060052
:101770000200fa00000f78001e027800cfa2de00ff
:101780007600200007002000860f5200878f5a0045
:1017900053003e0004060100070037001000370028
:1017a00018003700200037002800370030003700cd
:1017b000380037004000370015eea900232ca800a0
:1017c00022eca80015aea900432ca80042eca8000a
:1017d000156ea900632ca80062eca8004000370039
:1017e00015eea900232ca80022eca80015aea80035
:1017f000432ca900156ea800632ca80062eca80079
:101800003700370015eea800232ca90015aea9005b
:10181000432ca80042eca800156ea800632ca80079
:1018200062eca8002e00370015eea800232ca900ba
:1018300015aea800432ca80042eca800156ea90024
:10184000632ca80062eca8002500370015eea90063
:10185000232ca80022eca80015aea800432ca80059
:1018600042eca800156ea800632ca9001c003700ec
:1018700015eea800232ca80022eca80015aea900a4
:10188000432ca80042eca800156ea800632ca90008
:101890001300370015eea800232ca80022eca800a6
:1018a00015aea800432ca900156ea900632ca80052
:1018b00062eca8000a00370015eea900232ca8004e
:1018c00022eca80015aea900432ca80042eca80009
:1018d000156ea900632ca80062eca80000000000af
:0818e0000080fa000000060080
:020000040000fa
:1018e800001000001a010000800000005a110000da
:1018f8000600000082000000204ed00007e8030028
:101908003c1100001e000000800000001a110000b9
:101918002200000082000000010000000005000015
:10192800010006000003000004000200000000009f
:10193800000002000004000003000600000100008f
:101948000500000000000000601100000200000017
:08195800800000000000000007
:020000040000fa
:04afe400cfff00009b
:020000040000fa
:04afe8007fff0000e7
:020000040000fa
:04afec007dff0000e5
:020000040000fa
:04aff00038ff000026
:00000001FF
