:020000004E2888
:10000800B200003003178F000313320C7F39233EF0
:1000180003178D0003188F0A83168C170C14000021
:1000280000008312031332181E2803170C087F39A7
:100038000313080003170C0D0E0D031308000A2400
:10004800CD21B619B419202AE539F434EE333A052E
:100058008A0600058D2BE837A0306D104910A839A5
:10006800E83775366410E2322018F819B2143A10DD
:1000780025348A060034E530E41E25322000F034A9
:10008800F431E81E25322000F2376C36BD126410B8
:10009800000500008316031396208611A201A30110
:1000A800A401F7216430A200A301A0210030C520DB
:1000B800A1001530A2002108A300A401F7210830EF
:1000C80086065030A9203730A2003708A300A401C3
:1000D800F7213C30A2003808A300A401F7214030E2
:1000E800A2003908A300A401F7213C30A2003A0875
:1000F800A300A401F7214A30A2003B08A300A401F1
:10010800F7213C30A2003C08A300A401F72153309A
:10011800A200A301A401F721C830A200A301A021D5
:10012800632895289B018312850183168501C030B9
:1001380083128600063083168600333099002430F7
:1001480098009030831298000800A2003230E42012
:10015800EB203230622122086221EB203330622109
:10016800A401063024020318C3283121A300373024
:1001780024078400831323088000A40AB528FD20DF
:10018800FD28A2003230E420EB2032306221E13039
:10019800622122086221EB20333062211421A3005E
:1001A800FD2023080800FF00323083120313E420E7
:1001B800EB20323062217F0862217F086221FD280E
:1001C800A500EB2025086221031CE528FD288316DD
:1001D8000510831205140A30A800A901B821851456
:1001E8000A30A800A901B82105100A30A800A90101
:1001F800B82985100A30A800A901B821831605106E
:10020800831205100A30A800A901B82185140A3004
:10021800A800A901B82105140A30A800A901B82925
:100228008510831605148312A401A41B1F29083006
:10023800240203182F2985100A30A800A901B82123
:1002480085140A30A800A901B821A50D25100518A4
:100258002514A40A192925080800851083160514F1
:100268008312A501A51B3C290830250203184C2937
:1002780085100A30A800A901B82185140A30A80001
:10028800A901B821A60D261005182614A50A362995
:10029800851083160510831205100A30A800A901DD
:1002A800B82185140A30A800A901B82185100A30A0
:1002B800A800A901B821051426080800A60083167D
:1002C80005108312A701083027020318802985101A
:1002D8000A30A800A901B821A60D031C05100318AF
:1002E80005140530A800A901B82185140A30A80012
:1002F800A901B821A70A672985100A30A800A90111
:10030800B82183160514831285140A30A800A901A0
:10031800B821A701270A03199529051C9529A70AB9
:100328008E2985100A30A800A901B821270F9E2917
:100338000310080003140800220823040319B7292E
:10034800A401043024020318B229A501453025026E
:100358000318B029A50AAA29A40AA529A203220AD2
:100368000319A303A0290800A803280A0319A9034D
:1003780028082904031DB8290800B2000C1EC22948
:10038800320899000800831203138C1EC9291A0821
:100398000800FF01FF01831203138C128C1AE02955
:1003A800FF0A0319FF0A7F08E83A031DD2297F08CC
:1003B800033A031DD22900341A080800B20001309C
:1003C8008A003208820730343134323433343434DA
:1003D800353436343734383439344134423443349C
:1003E800443445344634A901AA01A5012508220749
:1003F8000420A600A6080319CD2A253A031DC92AF8
:10040800A50A250822070420A600A6080319CD2A54
:100418005C3A031D162AA50A250822070420A6000F
:10042800C121CB2A2608623A031D322AA7010830C7
:1004380027020318CB2AA31F232A3130C121A31B6B
:10044800272A3030C1212708033A031D2D2A2030DE
:10045800C1210310A30DA40DA70A1B2A2608643A7C
:10046800031D9D2AA41F4D2A2D30C1212308B30046
:100478002408B4001030B2000310A30DA40DB30D6E
:10048800B40D031C4B2AA403A303230FA40AB20B25
:10049800402A23082404031D542A3030C121CB2AC2
:1004A8000430A700A41B8F2A2308240403198F2AC9
:1004B8002308B3002408B400A8011030B200B30D1B
:1004C800B40DA80D03186C2A0A302802031C6E2AE2
:1004D8000A30A802B20B632A2D3027078400831341
:1004E800280880002308B3002408B400B5011030A0
:1004F800B200B30DB40DB50D0318862A0A303502C3
:10050800031C892A0A30B5020314A30DA40DB20BEB
:100518007D2AA703562AA70A053027020318CB2AE3
:100528002D302707840083130008E221C121A70A80
:10053800902A2608683A031DBB2A3030C12178303A
:10054800C121A41BB22AA4080319B22A240E0F3908
:10055800E221C1210F302405E221C121230E0F39E8
:10056800E221C1210F302305E221C121CB2A26082F
:10057800663A031DC22A2130C121CB2A2608753AC2
:10058800031DCB2A2308C121CB2A2608C121A50A8D
:04059800FA29080034
:00000001FF
