:020000040000fa
:080000000002040000000000f2
:020000040000fa
:100008008a0700008a0700008a0700008a070000a4
:100018008a0700008a0700008a0700008a07000094
:100028008a0700008a0700008a070000d202000041
:100038008a0700008a0700008a0700008a07000074
:10004800d80300008a0700008a070000560700004e
:10005800820700008a0700008a0700008a0700005c
:100068008a0700008a0700008a0700008a07000044
:100078008a0700008a0700008a0700008a07000034
:100088008a0700008a0700008a0700008a07000024
:100098008a0700008a0700008a0700008a07000014
:1000a8008a0700008a0700008a0700008a07000004
:1000b8008a0700008a0700008a0700008a070000f4
:1000c8008a0700008a0700008a0700008a070000e4
:1000d8008a0700008a0700008a0700008a070000d4
:1000e8008a070000b80600008a0700008a07000097
:1000f8008a0700008a0700008a0700008a070000b4
:100108008a0700008a0700008a0700008a070000a3
:100118008a0700008a0700008a0700008a07000093
:100128008a0700008a0700008a0700008a07000083
:100138008a0700008a0700008a0700008a07000073
:100148008a0700008a0700008a0700008a07000063
:100158008a0700008a0700008a0700008a07000053
:100168008a0700008a0700008a0700008a07000043
:100178008a0700008a0700008a0700008a07000033
:100188008a0700008a0700008a0700008a07000023
:100198008a0700008a0700008a0700008a07000013
:1001a8008a0700008a0700008a0700008a07000003
:1001b8008a0700008a0700008a0700008a070000f3
:1001c8008a0700008a0700008a0700008a070000e3
:1001d8008a0700008a0700008a0700008a070000d3
:1001e8008a0700008a0700008a0700008a070000c3
:1001f8008a0700008a0700008a0700008a070000b3
:100208008a0700008a0700008a0700008a070000a2
:100218008a0700008a0700008a0700008a07000092
:100228008a0700008a0700008a0700008a07000082
:100238008a0700008a0700008a0700008a07000072
:100248008a0700008a0700008a0700008a07000062
:100258008a0700008a0700008a0700008a07000052
:100268008a0700008a0700008a0700008a07000042
:0c0278008a0700008a0700008a070000c7
:020000040000fa
:100400002f1e21000eff21000e01880000000000b9
:10041000000020000000e000020032000001200087
:10042000200288000c000700a0212100010020000c
:100430000f000700000020000000e0000200320072
:1004400000000200000000005e1102000000000039
:100450000040da000000fe00200020000000e00064
:100460000200320010002000900188000000060009
:10047000a1028800800078000000eb001a0037001d
:10048000e280400054a0b4009101ba00e280400034
:1004900054a0b4009102ba00e280400054a0b4001d
:1004a0000002eb00472bde00f507b200a601880032
:1004b000602ce10008003a000049eb000201e8006e
:1004c000020039003420ec0002f0a0008301e900b2
:1004d000f9ff3e00040037006128e100010032000e
:1004e0000082eb00040007001101ba000200e000e6
:1004f000e3ff3a000000060004d0a300e20f490029
:100500001c003900810278003549ba000201e80078
:10051000020039003420ec0002f0a0008301e90061
:100520000f0032002549ba000201e800020039003c
:100530003420ec0002f0a0008301e9000800320042
:100540000400e0000600320015c9ba000201e8000c
:10055000020039003420ec0002f0a0008301e90021
:100560008180e80054a0b4000300e000e2ff3a00fc
:10057000000006009102ba00055978008301e900e5
:10058000f7ff3200c82ade00055978008301e90030
:10059000f3ff32000400e000f1ff320011d9ba008d
:1005a000eeff37003600f800809fbe00829fbe003d
:1005b000849fbe00869fbe00881f78000000fa005e
:1005c0000005200072060700748d8000c822dd003f
:1005d000848d800004824200e48d8800948d800028
:1005e000c822dd00a48d800004824200f48d8800c2
:1005f000b48d8000c822dd00c48d800004824200da
:10060000048e8800e48d8000cfa2de000400be00ce
:10061000510407006022b8000600200047022400b1
:10062000630307000002be000203be00c0162100e3
:100630000498be000690be00f48e80006402520052
:10064000cfa2de000400be0043040700c416210050
:100650005403be004402be0018c0b3004a030700a2
:1006600000027800e00f5200010034000044eb006b
:10067000e04f540012003200f48e80006402420009
:10068000cfa2de000400be0033040700c416210020
:100690005403be004402be0018c0b3003f0307006d
:1006a00000027800e00f520001003d000044eb0022
:1006b000e04f540002003200042ea9000100370070
:1006c000042ea80064182100144278000443780026
:1006d00075182100864a7800751821009542780027
:1006e00054c6b30084cf520007003a00258c800026
:1006f00014892e00848f520003003500248c800062
:10070000441fb100248c88007518210095427800a0
:1007100074c7b30084cf520002003a000002eb001d
:10072000248c8800751821009542780014c7b30006
:1007300084cf520007003a00258c8000f476210017
:10074000848f520003003c00248c8000441fb000c2
:10075000248c8800248c800048a2de0004017800ec
:10076000410120000004200048060700248c80007e
:1007700084027800f40f20000482620004017800f3
:100780005101200000042000400607000068a90075
:100790000080fa004f0478004f03be004f02be00f5
:1007a0004f01be004f00be003600f90000400600b9
:1007b0003600f800809fbe00829fbe00849fbe006e
:1007c000869fbe00889fbe008a9fbe001000fa0070
:1007d00000052000ee050700748d8000c822dd00b2
:1007e000848d800004824200e48d8800948d800016
:1007f000c822dd00a48d800004824200f48d8800b0
:10080000b48d8000c822dd00c48d800004824200c7
:10081000048e8800e48d8000cfa2de000400be00bc
:10082000cd0307006022b800060020004702240024
:10083000df0207000002be000203be00c016210056
:100840000498be000690be00f48e80006402520040
:10085000cfa2de000400be00bf030700c4162100c3
:100860005403be004402be0018c0b300c602070015
:1008700000027800e00f5200010034000044eb0059
:10088000e04f540012003200f48e800064024200f7
:10089000cfa2de000400be00af030700c416210093
:1008a0005403be004402be0018c0b300bb020700e0
:1008b00000027800e00f520001003d000044eb0010
:1008c000e04f540002003200042ea900010037005e
:1008d000042ea800f48e8000cfa2de000400be002b
:1008e000a00307000002be000401be0000002000bb
:1008f00041332400460207000002be000400be008f
:100900004a0307000002be000203be00c017210018
:100910000498be000690be00c41621003400be003c
:100920002401be00c41721005403be004402be00cf
:10093000ba0107000002be000203be0040172100fa
:100940000498be000690be00441721003400be008b
:100950002401be0018c0b3006022b80006002800c1
:10096000670724008d02070000027800e00f5200a4
:1009700001003c000044eb00e04f54000d00320049
:10098000441721003400be002401be006022b800dc
:100990000600280067072400710407000002be005b
:1009a0000203be00c01621000498be000690be00df
:1009b00020003700441721003400be002401be008f
:1009c00018c0b3006022b8006033b8006e020700a0
:1009d00000027800e00f5200010035000044eb00f7
:1009e000e04f54000d003200441721003400be00d7
:1009f0002401be006022b80006002800670724001a
:100a0000860107000002be000203be00c0162100de
:100a10000498be000690be0006003700441721006f
:100a20005403be004402be00c01621000498be005c
:100a30000690be00c41621003400be002401be0092
:100a40000400200005002a0066f42d0017f9230099
:100a50009a0307000002be000203be00049fbe000e
:100a60000697be00048f8000cfa2de000400be0007
:100a70003c0307000002be0052a32f00e3c823007e
:100a80000400be00020407000002be000400be0015
:100a9000e60207000002be000203be004407980001
:100aa0005507980066079800770798003e02be0039
:100ab0002e03be004e009000de0090006e019000fc
:100ac000fe019000260407000002be000203be00e3
:100ad000401321000498be000690be00441221007d
:100ae0003404be002405be00441321003400be00bf
:100af0002401be00040020000500240036332e002f
:100b0000d70624006d0307000002be000203be00ea
:100b10000800be000a01be00110407000002be006a
:100b20000203be000404be000605be00c41321007b
:100b30003400be002401be00040020000500240093
:100b400036b32500870724005c0307000002be00bf
:100b50000203be000800be000a01be002f0107000c
:100b60000002be000203be000404be000605be0073
:100b7000441421003400be002401be000400200003
:100b80000500240036332d00370624004b030700f0
:100b90000002be000203be000800be000a01be0043
:100ba000ef0307000002be000203be00c0112100d7
:100bb0000498be000690be00c41121003400be009f
:100bc0002401be0018c0b3006022b8000600250052
:100bd00047082400f101070000027800e00f5200ee
:100be00001003c000044eb00e04f540006003200de
:100bf000c01121006022b80006002500470824002b
:100c00000498be000690be00c41121003400be004e
:100c10002401be0018c0b3006022b8000600250001
:100c200047082c00d801070000027800e00f5200ae
:100c3000010035000044eb00e04f54000600320094
:100c4000c01121006022b8000600250047082c00d2
:100c50000498be000690be00c41121003400be00fe
:100c60002401be000400200005002600d6932100c8
:100c700037022400110307000002be000203be0079
:100c80000400be000601be00870207000002be008d
:100c900004027800248c8800248c800048a2de00a6
:100ca000040178004101200000042000f70407003f
:100cb000248c800084027800f40f200004826200fb
:100cc000040178005101200000042000ef04070017
:100cd000c41321005403be004402be00401421008e
:100ce0000498be000690be00441221005403be00ca
:100cf0004402be00c01221000498be000690be004f
:100d0000441321005403be004402be00c01321005e
:100d10000498be000690be00c41121005403be001a
:100d20004402be00401221000498be000690be009e
:100d3000441321005403be004402be00c01421002d
:100d40000498be000690be000108a9000080fa00c9
:100d50004f05be004f04be004f03be004f02be0051
:100d60004f01be004f00be003600f90000400600f3
:100d7000849fbe000200fa00c4108000640262007a
:100d8000e00f520009003a00c51080000402200064
:100d900004826200e00f520004003a0084108000d8
:100da000044f78000211a8003c003700c4108000f6
:100db00064026200e00f52001f003a00c51080007c
:100dc0000402200004826200e00f52001a00320088
:100dd000241021001442780061426200e04f52006a
:100de000070032000211a9000231a8000588800026
:100df00084108000048242000488880027003700a5
:100e0000241021001442780062426200e04f520038
:100e1000210032000488800085108000854278001f
:100e2000054a78000211a9000231a900040021003e
:100e30000488880019003700c41080006402620032
:100e4000e00f520015003200c5108000040220009f
:100e500004826200e00f520010003a00841080000b
:100e6000044f780004888000144278000482fb005c
:100e7000941088001782a80000000000c4108000b1
:100e800061026200e00f5200fcff3a000400210002
:100e90000488880001003700000000000628a9002f
:100ea0000080fa004f02be0000400600849fbe0092
:100eb000861f78000000fa001411800062026200b0
:100ec000e00f5200010032002222a900141180001c
:100ed00061026200e00f5200050032003411800010
:100ee000044278000443780065182100864a78009f
:100ef0000168a9000080fa004f0378004f02be008d
:100f0000004006000000fa000188a9000080fa00f5
:100f1000004006000040da000000fe0016a2a90012
:100f20000000fa001682a8000080fa000000060007
:100f3000040024000000fa001602ab00feff3a0095
:100f40001642ab00fcff3a001662ab00faff3a0013
:100f50001622ab00f8ff3a001682ab00f6ff3a000b
:100f6000c610800086026200f3ff3a000080fa009b
:100f7000000006001662a8000000fa001662ab002e
:100f8000feff3a0018c2a9000080fa00801080001d
:100f9000000006000080fb000000fa0090108800ae
:100fa00000c0eb0018e2ab0009003a000400240086
:100fb000c610800086026200fdff3a00dcff0700d9
:100fc000000028001802b60001003200e0cfb30094
:100fd0000080fa000000060016a2a8000000fa0037
:100fe0001682a8000080fa00000006001622a80061
:100ff0000000fa000080fa00000006001602a800b7
:101000000000fa000080fa00000006001642a80066
:101010000000fa000080fa00000006002800fa0034
:10102000889fbe008a9fbe008c9fbe000706780086
:10103000878669000c003b00030478008704780071
:1010400008f0a10009f0a100840f5000858f58001e
:10105000860f5900890f5c00030033000cf0a200da
:1010600001003a000cf0a100570107006400e10004
:101070005f003200780147006408e100610032003f
:101080006c014700748557003200be001201be009b
:101090003a04be001a05be001e039000be0a90006e
:1010a0008503530006003d000004fd008104fd009f
:1010b0000205fd008305fd008703ea0005037800b3
:1010c0000df8a3000400320060041400e0841c004a
:1010d00060051d00e0851d006022b8007d03200032
:1010e0000d38e1008006eb000b0039004433dd00d1
:1010f000f300b2008301730039003700848272006c
:101100000d027800e10664008b85d1000a85d300ca
:101110008984d3000884d3008703e900f7ff3b00ec
:1011200008004000898048000a0149008b8149007d
:1011300004003b0060001000e0801800600119000e
:10114000e08119000358a300090032008d8272006b
:1011500084827200610260008301d1000281d300a9
:101160008180d3000080d3000603e8001b00370015
:101170000348a30017003a000600e00017003400ff
:101180000603e9000d00a30000004800818048002c
:1011900002014900838149000348a3000f003a007f
:1011a0000600e000090034000603e90000004000ea
:1011b00081804800020149008381490001003a0012
:1011c0000003eb000348a300f5ff32006022b800e3
:1011d000020037008482720061826600ce00070040
:1011e00003f0a1000cf0a70003f0a0000a013700f3
:1011f000640147006408e10002003a000df8a30012
:1012000002013a003200be001201be0002013700a6
:1012100003f0a200889fbe008a9fbe008c1f78004a
:101220008e010700950133006450e1004f00320049
:101230006420e1005200320003826c0007003b0092
:101240000905d0000306d000820f54000c065d0093
:10125000020039000200320089017800030678009c
:101260008582550004003d000003fd008103fd0060
:101270008502ea008b854200840f720002003b0069
:1012800060001000e08018006011b8000005eb005d
:101290007a28e1000a00390006007800c75ddd0009
:1012a000f707b200878075002d003700828171003a
:1012b0000a017800610560008180d1000080d300c0
:1012c0008502e900f9ff3b000604400087844800de
:1012d00002003b0060041400e0841c000988a300a5
:1012e000070032008a81710082817100610164000f
:1012f0008904d1000884d3008b05e800170037006b
:101300000978a30013003a000b00e000130034003a
:101310008b05e9000804440089844c000a447400e9
:101320000978a3000d003a000b00e000070034002c
:101330008b05e9000804440089844c0001003a0050
:101340000b0020000978a300f7ff32000001eb003a
:1013500002003700828171000a0178000401070051
:101360000cf0a70001f0a0004d0137006420e1005f
:1013700002003a00838f6c004d0133000801be006b
:101380000200be00460137008f1fd100f6010700a2
:101390008f87e9000000e00000000600809feb005e
:1013a000f10107008f87e9000000e000000006005f
:1013b0002800fa00889fbe008a9fbe008c9fbe0056
:1013c00003866b00800007006400e10044003200e7
:1013d0006408e1004a0032006100e100460032008a
:1013e0006108e10049003200ec0647006000b800e7
:1013f0003d02be003d03be00f48657006011b800f8
:101400003d04be003d05be007d0320000b003700fb
:101410000000a0008d06e900130032000402420023
:1014200085824a0006034b0087834b000000400082
:10143000818048000201490083814900080252006e
:1014400089825a000a035b008b835b00f0ff3b003c
:101450000802420089824a000a034b008b834b003a
:101460008d06e900edff3a008482720086827200e8
:10147000f707b200878272000100320015002000d9
:101480001e0490003e0b900006035400e63fb0009f
:101490000368a300070032000000a7000500a000b9
:1014a0008301d1000281d3008180d3000080d3006a
:1014b0000603e8008301d1000281d3008180d300bc
:1014c0000080d3000002eb000482d200120007006b
:1014d00003f0a1000cf0a70003f0a0004e003700bd
:1014e000640247006408e100480032003400be0096
:1014f0003401be00f6ff37006108e100430032000e
:101500006011b8006000b800f1ff370003ff27004a
:1015100002002000fbff37001800200057002000c9
:10152000080453000d003d000600200097fc2f002a
:101530000740e1001e0034008482720061026000f6
:101540008301d1000281d3008180d3000080d300c9
:101550000804e800f8ff3a0047002000610460003a
:1015600005047400040464000d00320061004000b2
:10157000e080480060014900e081490003b8a5000f
:10158000070032000603e8006538e10004003a0075
:101590008301d1000281d3008180d3000080d30079
:1015a000f87f20000830e1000300350008037800d0
:1015b0006000b8006011b8004433dd00f300b200f1
:1015c0008301730000000600680447000294be0017
:1015d0000094be00fc0447008694be008494be00c4
:1015e00009007800a901070008007800a70107009a
:1015f00099007800814f70000b003b000800be008e
:10160000820107004f00b10003003700f3ff2700fd
:10161000f2ff2f006110b9004f06be004f05be005b
:101620004f04be000080fa0000000600810378002d
:10163000750007000001be006000b8000478a30038
:1016400013003a006220e10015003e000d00390051
:101650008301d1000281d3008180d3008301d100b6
:101660000281d3008180d3008301d1000281d300a5
:101670008180d3000538b000c42add00f300b20039
:101680008381720007f0a70003f0a00000000600ad
:10169000f3ff2700f2ff2f006110b900fbff3700b6
:1016a00003ff2700f7ff37001400fa00889fbe00f1
:1016b0008a9fbe008c9fbe000004be000205be00d3
:1016c000680047000a90be000890be006f01070046
:1016d0000070a7000bf0a100304320009e02900094
:1016e00080825200b0fe2f000028e10011003d0072
:1016f000b0fc2f000028e100150034001e09900006
:101700008e0890007e0090000501b0000201d1001b
:101710008180d3000080d3008502e800fbff3a00ff
:101720000b00e000bcff3b0060001000e0801800f0
:10173000b9ff3700f0ff2f00f1ff27000b00e0009a
:10174000b5ff3b000100280000002000b2ff370079
:101750006000b800b0ff37004f89de0082017800da
:10176000710137004f89de00820178007e01370069
:1017700081002000618055000b003d000b0020001f
:1017800061fe2f000100e1001d0034008281710024
:10179000610164008904d1000884d3000000e800de
:1017a000faff3a007100200061006400030070003d
:1017b000020060000900320061044400e0844c0033
:1017c0000988a500050032008b05e8006808e100e3
:1017d00002003a008904d1000884d300f20f2000ef
:1017e0000258e10005003d00c75ddd00f907b200c9
:1017f0008980750008007800000006000bf82700bb
:101800008b00780000000500c70ade00f107b20077
:10181000f50fb20008003200e1cf420002003200b2
:101820000170a00024000500810f7000010032004b
:101830000408050044000500810f700002003a0012
:10184000140005008502e9000000400081c0480046
:10185000fcff3b000170a000240005000004be0056
:10186000e9ff07000003be000405be000200be0041
:10187000e5ff0700844f7500000006000200be006f
:101880006450e100050036006420e10002003600eb
:101890000968a30001003a000800be000160a00032
:1018a0004f0678004f05be004f04be000000060042
:1018b000f0ff2f00f1ff2700f9ff37002800fa00a2
:1018c000889fbe008a9fbe008c9fbe0003866b006f
:1018d0003dff07000028a30064003a000128a30090
:1018e00067003a000008a30062003a000108a30064
:1018f00065003a001e009000be089000810640007e
:10190000ed3fb100f4805700ee019000111ab800cd
:101910008e099000311bb8009e099000311cb80060
:10192000511db800f485570046000700fe019000e5
:101930003a0007008b85e8003e0007008e09900002
:1019400040000700ee019000340007008b85e8009e
:10195000380007008e099000400007009e099000a3
:101960001b18b800890440000a854800fe01900059
:10197000340007008b85e80038000700ee01900076
:10198000300007008e0990001b18b8008904400041
:101990000a8548000a98a30008003a0004024200a1
:1019a00085824a0006034b0087834b0008044c00e5
:1019b00089844c000a054d008d06e900848272007e
:1019c000850273004c3add0085027200010032008e
:1019d00015002000443ade001400b2004538de0055
:1019e000cb45dd000b007000c540de00cb4ddd00b7
:1019f0008b8070004549de00cb55dd000b01710086
:101a0000c551de000d037800c3fe070003f0a100fe
:101a10000cf0a70003f0a000fffe37001b18b80071
:101a20008502400006834800e0834b0060044c00c0
:101a3000070037001b18b8000603400087834800e2
:101a4000faff37001b18b8008703400008844800dd
:101a5000e0844c0060054d00000006001b18b80033
:101a60000804400089844800faff37000108a300f9
:101a7000e6fe3a005800be005801be00e3ff370002
:101a80000008a300e1fe3a0009047800f9ff3700de
:101a9000889fbe008a9fbe008c1f78006fff0700e2
:101aa00076ff330003866c006450e10024003200ae
:101ab0006420e100270032006150e1002200320082
:101ac0006120e100210032008b854200eb07b1006c
:101ad0000134b800003ab8000804420089844a0082
:101ae000013ab8000030b8008880400009014a007f
:101af00004003300000040008180480002014900da
:101b00008b05e900c909dd00830170000100320086
:101b100013002000c814de004814dd004709de0071
:101b20001200b200c808de000884700010ff070031
:101b300001f0a1000cf0a70001f0a00058ff370051
:101b40006120e1005aff32000801be000200be0021
:101b5000f7ff37006150e100fcff3a0054ff370007
:101b600007f0a2002dfd3700889fbe008a9fbe00af
:101b70008c9fbe000404be000605be00809fbe0010
:101b8000829fbe002f000700040678000800be00f8
:101b90000a01be002b000700840678004f03be0038
:101ba0004f02be008d4f76007fb0970013003300c8
:101bb000f0ff2f008b8f6b0006003b000d066600c8
:101bc0000c00a7000a00370007f0a6001000200054
:101bd0000a003700880f5200898f5a008a0f5b0075
:101be0008b8f5b00030039001000200001003e00d5
:101bf0000000200007f0a7000000ea004f06be002a
:101c00004f05be004f04be0000000600e482400005
:101c10001078a30007003200640240001178a3008e
:101c20003400be001401be00040032000330a700df
:101c3000000006003500be001501be000330a00004
:101c40000000060005ff2700058261000700320042
:101c50000428e1000100320024000500060007000e
:101c600001003a00440005000408050002000700d6
:101c7000f9ff3a00140005006f82610081027000d4
:101c80008502710085027200000006008000780065
:101c90005002be005003be004439de00f700b2001f
:101ca000f37f200003016100090032000218e10007
:101cb00016003a008501720083017300838173006e
:101cc0000008200015003a004000200013003700f3
:101cd00085017200830173008381730005003a005f
:101ce00004a8be0006a8be00100020000b003700ac
:101cf0000201e9000402420085824a0006034b000b
:101d000087834b000748a300f9ff32000740a0007b
:101d100004a8be0006a8be00200020008000980095
:101d20009200980000000600881f780003047800e5
:101d30000300e00007003d0060001000e080180094
:101d400060011900e081190002003b0001f02d0044
:101d5000030037001400070008f0a70003f0a000fc
:101d60004f04780000000600881f78000304780004
:101d70000300e00007003d0060001000e080180054
:101d800060011900e081190002003b0001f02d0004
:101d9000030037002f00070008f0a70001f0a000a3
:101da0004f04780000000600889fbe00008270008b
:101db00004027100048271002400320036432000c6
:101dc000c50020008383cf000a0039000541b1001f
:101dd0008283cf00070039000541b1008183cf0025
:101de000040039000541b1008083cf0001003900b3
:101df0000541b10085c353006022b80012003200d3
:101e00000a003b0084827200610260008301d100fd
:101e10000281d3008180d3000080d3000603e80054
:101e20008743e800f7ff3a00070037000000400052
:101e30008180480002014900838149000603e900ce
:101e40008743e900f9ff3a00b3fd07004f04be00e5
:101e500000000600889fbe008a9fbe0000827000be
:101e60000402710004827100260032000004be00ea
:101e70000200be006011b8006b092000950220002e
:101e80000182cf000a0039000541b1000082cf0075
:101e9000070039000541b1000982cf000400390074
:101ea0000541b1000882cf00010039000541b100b1
:101eb00005425200120032000a003b00828171008c
:101ec000610164008100d1000080d3008984d300c7
:101ed0000884d3008b05e8000442e800f7ff3a00cd
:101ee000070037000804440089844c0000004800c3
:101ef000818048008b05e9000442e900f9ff3a00bf
:101f00001bfe07004f05be004f04be000000060088
:020000040000fa
:101f10000400fa001007980038fc070004fc0700d2
:101f200020c3b3001bfc070001fc070010ceb30068
:101f300018fc0700fefb07001e0290000442780018
:101f40000440780013fc0700f9fb070027fc07009a
:101f5000f7fb070030c3b3000efc0700f4fb0700db
:101f600004fc0700004278000482fb00040f7800a4
:101f7000effb070018fc0700edfb070023fc070040
:101f80001e027800040078000080fa0000000600bd
:101f90000200fa00000f780018fc0700e4fb0700bd
:101fa00020c3b300fbfb0700e1fb07001e02780023
:101fb0000442780004407800f6fb0700dcfb0700d1
:101fc0000afc0700dafb070030c3b300f1fb07008f
:101fd000d7fb0700e7fb0700004278000482fb0004
:101fe000748d8800d2fb0700ccfb0700d0fb0700f4
:101ff000e0fb0700004278000482fb00848d88002b
:10200000cbfb0700c5fb0700c9fb0700d9fb070096
:10201000004278000482fb00948d8800c4fb070016
:10202000befb0700c2fb0700d2fb0700004278009e
:102030000482fb00a48d8800bdfb0700b7fb0700ee
:10204000bbfb0700cbfb0700004278000482fb00cb
:10205000b48d8800b6fb0700b0fb0700b4fb070097
:10206000c4fb0700004278000482fb00c48d880096
:10207000affb0700d8fb0700adfb0700e3fb070041
:10208000e2fb07000080fa00000006000600fa00ec
:10209000000f78001107980022079800d7fb07006f
:1020a000a3fb07001e0278000442780004424200ad
:1020b00004407800b7fb07009dfb07001e0290005c
:1020c0000442780004407800b2fb070098fb070048
:1020d0002e0290000442780004407800adfb070017
:1020e00093fb0700c9fb070091fb07000080fa0083
:1020f000000006000000fa000002eb00f470880007
:10210000f4708000747088000080fa0000000600ff
:102110000000fa0004022800940888000002eb0086
:102120005408880094d023007408880013e1a800a4
:10213000244280000400a0000410a1000420a0009c
:10214000244288000108a9002108a8000080fa00a4
:10215000000006000000fa0004022800240888009d
:102160000002eb000408880094d0230014088800c3
:1021700005e1a8000442800004c0a00004d0a10032
:1021800004e0a000044288000068a9002068a800bc
:102190000080fa00000006000000fa00002ea900ee
:1021a0000080fa00000006000000fa0011eea9000d
:1021b00011aea900116ea900008ea90010aea900f1
:1021c0000080fa00000006000000fa000400280069
:1021d000b4108800e4012000a4108800040021004d
:1021e000048888000211a9000231a9000080fa00c9
:1021f000000006000000fa000080fa00000006005f
:102200000000fa0021e2a90021a2a9002182a90070
:102210002162a900041180000480a1000490a100a3
:102220000411880020e2a90020c2a90020a2a90070
:102230002062a900041180000410a1000420a10064
:10224000041188002002a900040220004411880023
:1022500023e2a90023c2a90023a2a9002362a900a6
:102260002342a9002322a9002302a90014118000ff
:102270000460a1000470a1001411880022a2a9002a
:102280002282a9002262a9002242a9002222a900da
:102290002202a9000188a9002188a8000168a900dc
:1022a0002168a80021e2a8002342a800114ea8003e
:1022b000116ea9000080fa00000006000200fa007a
:1022c000c3e8a8000002eb00847088000002eb0065
:1022d0000470880087ff070045348000f40f2c004d
:1022e00084826200041020000502720044348800d9
:1022f0002536800004f82f0084826200a4022000aa
:102300000502720024368800042ea900bcff0700d5
:10231000803821002f0007008eff07007cff070098
:102320009dff0700a0ff07000002eb00040f7800ec
:10233000060037001e027800844278000400210065
:102340001e024200054a78001e0fe800f40f20002c
:102350009e027800848f5200f6ff36009aff070035
:10236000042ea800010037000000000064182100be
:102370001442780004437800a5192100864a7800a9
:10238000a519210095427800c4c6b30084cf52003d
:1023900005003a00042ea80014002000448e880096
:1023a00005e1a90013e1a800a519210095427800d4
:1023b00044c6b30084cf5200ebff3a00042ea900bc
:1023c0000002eb00448e880013e1a90005e1a8009b
:1023d000e6ff37000400fa001007980008003700f5
:1023e0000002eb00040f7800010037001e0fe80028
:1023f000743e20009e027800848f5200fbff36005e
:102400001e02900004f0a7000402ea000402ea00a1
:102410004f22de00044278009e0290008502e9000f
:1024200015079800e04f5200edff3a000080fa00d7
:0424300000000600a2
:020000040000fa
:10243400881100002400000080000000c811000082
:10244400140000008200000001004d006963720066
:102454006f6368006970200049434400320a0d002c
:102464000a0d0000dc1100000600000082000000dc
:10247400e803180001b40000001000008801000007
:1024840080000000ac1100001c000000800000006f
:042494000000000044
:020000040000fa
:04afe400cfff00009b
:020000040000fa
:04afe8007fff0000e7
:020000040000fa
:04afec007dff0000e5
:020000040000fa
:04aff0003aff000024
:00000001FF
